:100000000C945E000C9486000C9486000C94860080
:100010000C9486000C9486000C9486000C94860048
:100020000C9486000C9486000C9486000C94860038
:100030000C9486000C9486000C9486000C94860028
:100040000C94DD020C9486000C94AB020C94850297
:100050000C9486000C9486000C9486000C94860008
:100060000C9486000C948600000000080002010039
:100070000003040700000000000000000000000072
:10008000250028002B0000000000240027002A0083
:10009000040404040404040402020202020203032E
:1000A0000303030301020408102040800102040836
:1000B000102001020408102027032E0511241FBE62
:1000C000CFEFD8E0DEBFCDBF11E0A0E0B1E0EAE3C2
:1000D000FDE002C005900D92AC31B107D9F721E0E7
:1000E000ACE1B1E001C01D92AE3DB207E1F710E016
:1000F000CDE5D0E004C02197FE010E948506CC35F5
:10010000D107C9F70E947E030C9490060C9400005E
:1001100090E0FC01EC55FF4F2491FC01E057FF4FAC
:100120008491882399F090E0880F991FFC01EA5789
:10013000FF4FA591B491FC01E458FF4F8591949134
:100140008FB7F894EC91E22BEC938FBF0895CF9288
:10015000DF92EF92FF920F931F93CF93DF936C0187
:100160007A018B01C0E0D0E0CE15DF0589F0D8011F
:100170006D918D01D601ED91FC910190F081E02D02
:10018000C6010995892B11F47E0102C02196ECCF9E
:10019000C701DF91CF911F910F91FF90EF90DF90FA
:1001A000CF900895089580E090E00895FC01538D6C
:1001B000448D252F30E0842F90E0821B930B541741
:1001C00010F0CF96089501970895FC01918D828DCE
:1001D000981761F0828DDF01A80FB11D5D968C919B
:1001E000928D9F5F9F73928F90E008958FEF9FEFA6
:1001F0000895FC01918D828D981731F0828DE80F62
:10020000F11D858D90E008958FEF9FEF0895FC011B
:10021000918D228D892F90E0805C9F4F821B9109E8
:100220008F739927089585E291E00E94070121E0EC
:10023000892B09F420E0822F0895FC01848DDF01D1
:10024000A80FB11DA35ABF4F2C91848D90E0019649
:100250008F739927848FA689B7892C93A089B18938
:100260008C9180648C93938D848D981306C0028842
:10027000F389E02D80818F7D80830895EF92FF9236
:100280000F931F93CF93DF93EC0181E0888F9B8DB9
:100290008C8D981305C0E889F989808185FD24C07B
:1002A000F62E0B8D10E00F5F1F4F0F731127E02EFE
:1002B0008C8DE8120CC00FB607FCFACFE889F989DB
:1002C000808185FFF5CFCE010E941D01F1CF8B8D7E
:1002D000FE01E80FF11DE35AFF4FF0820B8FEA8910
:1002E000FB898081806207C0EE89FF896083E8898D
:1002F000F98980818064808381E090E0DF91CF91F3
:100300001F910F91FF90EF900895CF93DF93EC0131
:10031000888D8823C9F0EA89FB89808185FD05C025
:10032000A889B9898C9186FD0FC00FB607FCF5CF5F
:10033000808185FFF2CFA889B9898C9185FFEDCFA7
:10034000CE010E941D01E7CFDF91CF91089580E09B
:1003500090E0892B29F00E94130181110C94000078
:10036000089590E0FC01E859FF4F3491FC01EC55F1
:10037000FF4F2491FC01E057FF4FE491EE2309F475
:100380003BC0332339F1333091F038F43130A9F0E8
:10039000323001F584B58F7D12C0373091F038309E
:1003A000A1F03430B9F4809180008F7D03C080913A
:1003B00080008F77809380000DC084B58F7784BDD7
:1003C00009C08091B0008F7703C08091B0008F7D0D
:1003D0008093B000F0E0EE0FFF1FE458FF4FA591AF
:1003E000B4918FB7F894EC91611103C020952E233E
:1003F00001C02E2B2C938FBF0895CF93C82FE0916F
:10040000D801F091D901309711F0099513C080916E
:10041000D6018F3F79F06091D70162FB662760F9C2
:10042000CC2319F00E94B10107C091E069270E9416
:10043000B10106C0CC2321F08091D701806203C0B6
:100440008091D7018F7D8093D701CF9108958F92AE
:100450009F92AF92BF920F931F93CF93DF93CDB72D
:10046000DEB7A1970FB6F894DEBF0FBECDBF19A2BD
:10047000423008F44AE08E010F5D1F4F842E912C0C
:10048000A12CB12CA50194010E946306E62FB901AD
:10049000CA0101501109EA3014F4E05D01C0E95CC1
:1004A000D801EC93232B242B252B61F70115110583
:1004B00071F0F80101900020E9F73197AF01401B7E
:1004C000510BB80185E291E00E94A70002C080E0D4
:1004D00090E0A1960FB6F894DEBF0FBECDBFDF91BE
:1004E000CF911F910F91BF90AF909F908F900895E3
:1004F0000E948B06FC01218524FF06C08281938126
:10050000009711F00C94CB0508951F920F920FB62F
:100510000F9211242F933F934F935F936F937F9389
:100520008F939F93AF93BF93EF93FF9385E291E0F7
:100530000E941D01FF91EF91BF91AF919F918F910B
:100540007F916F915F914F913F912F910F900FBECF
:100550000F901F9018951F920F920FB60F921124B3
:100560002F938F939F93EF93FF93E0913501F09139
:1005700036018081E0913B01F0913C0182FD12C087
:10058000908180913E018F5F8F7320913F01821790
:1005900051F0E0913E01F0E0EB5DFE4F958F8093CE
:1005A0003E0101C08081FF91EF919F918F912F912A
:1005B0000F900FBE0F901F9018951F920F920FB6BD
:1005C0000F9211242F933F938F939F93AF93BF93D9
:1005D0008091210190912201A0912301B0912401E9
:1005E0003091200123E0230F2D3720F40196A11D27
:1005F000B11D05C026E8230F0296A11DB11D209351
:1006000020018093210190932201A0932301B093B4
:10061000240180911C0190911D01A0911E01B091B7
:100620001F010196A11DB11D80931C0190931D0116
:10063000A0931E01B0931F01BF91AF919F918F9125
:100640003F912F910F900FBE0F901F901895CF9351
:10065000DF93E5E2F1E01382128288EE93E0A0E0FE
:10066000B0E084839583A683B7838AE091E0918389
:10067000808385EC90E09587848784EC90E0978771
:10068000868780EC90E0918B808B81EC90E0938B5F
:10069000828B82EC90E0958B848B86EC90E0978B3C
:1006A000868B118E128E138E148ECEECD1E01882B2
:1006B00019821B821A821C821D821E821F821B8647
:1006C0001A868BE088870E948800898584608987E4
:1006D000C2ECD1E0188219821B821A821C821D8210
:1006E0001E821F821B861A868DE088870E948800E2
:1006F000898584608987DF91CF910895CF93DF93B7
:1007000000D0CDB7DEB7789484B5826084BD84B55F
:10071000816084BD85B5826085BD85B5816085BDFC
:1007200080916E00816080936E00109281008091B4
:10073000810082608093810080918100816080933C
:100740008100809180008160809380008091B10061
:1007500084608093B1008091B00081608093B0008C
:1007600080917A00846080937A0080917A00826020
:1007700080937A0080917A00816080937A008091E2
:100780007A00806880937A001092C100E091350170
:10079000F091360182E08083E0913101F0913201E5
:1007A0001082E0913301F091340110E11083109236
:1007B0003D01E0913901F0913A0186E08083E091BA
:1007C0003701F0913801808180618083E0913701A9
:1007D000F0913801808188608083E0913701F09149
:1007E0003801808180688083E0913701F091380181
:1007F00080818F7D808380E490E00E943605FC013B
:1008000080ED97E0A0E0B0E080839183A283B38382
:100810008FE090E0A0E0B0E084839583A683B78367
:1008200048EC50E060E070E0408751876287738752
:1008300084879587A687B787408B518B628B738B94
:10084000848B958BA68BB78B2CE2C22EDD24D394A0
:10085000E12CF12CC08ED18EE28EF38E448F558F19
:10086000668F778F3AEF832E912CA12CB12C80A22A
:1008700091A2A2A2B3A244A355A366A377A3C0A644
:10088000D1A6E2A6F3A684A795A7A6A7B7A740ABD3
:1008900051AB62AB73AB84AB95ABA6ABB7AB40AF20
:1008A00051AF62AF73AF84AF95AFA6AFB7AFF09360
:1008B000D101E093D0011093CF011092CE0180912D
:1008C000D7018F7E8B608093D701992493948E01FA
:1008D0000F5F1F4FC8018E5D91405C01E091D00118
:1008E000F091D101309709F46AC08091CF0188233B
:1008F00009F465C0813071F480819181A281B38156
:10090000892B8A2B8B2B11F480E001C081E00E949F
:10091000FD0155C08FB7F894C0902101D0902201FD
:10092000E0902301F09024018FBF4091D2015091BB
:10093000D3016091D4017091D5018091D701C41683
:10094000D506E606F70610F480FF39C083FF37C0EE
:10095000982F9E7F9093D70185FB882780F9892562
:100960000E94FD018091CE018F5F8093CE01909116
:10097000CF01891748F01092CE018091D70181FDF7
:1009800003C0877F8093D7018091CE01E091D00191
:10099000F091D10194E0899FE00DF11D1124808137
:1009A0009181A281B381C80ED91EEA1EFB1EC0929E
:1009B000D201D092D301E092D401F092D50180917E
:1009C000DA019091DB01009719F4BA82A9821AC06A
:1009D000A801481B590BE091DC01F091DD0180E09A
:1009E00090E0309759F09C012E5F3F4F80819181BC
:1009F000820F931F0280F381E02DF3CF840F951FA8
:100A00009A838983C980DA800D2C000CEE08FF08D8
:100A1000F7FE14C0E0912501F09126010190F081CC
:100A2000E02D6DE285E291E0099566277727CB01FD
:100A30006C197D098E099F094AE003C04AE0C7018D
:100A4000B6010E94270242E050E068E171E085E2D1
:100A500091E00E94A7000E94A70140CF82EC91E0A4
:100A60000E947A028EEC91E00C947A02CF93DF938D
:100A70008230910510F482E090E0E091DC01F09189
:100A8000DD0120E030E0C0E0D0E0309711F140819E
:100A9000518148175907C0F04817590761F48281FE
:100AA0009381209719F09B838A832BC09093DD015B
:100AB0008093DC0126C02115310519F04217530738
:100AC00018F49A01BE01DF01EF010280F381E02DED
:100AD000DCCF2115310509F1281B390B24303105F4
:100AE00090F412968D919C9113976115710521F0E8
:100AF000FB019383828304C09093DD018093DC012A
:100B0000FD01329644C0FD01E20FF31F81939193E2
:100B1000225031092D933C933AC02091DA01309153
:100B2000DB01232B41F4209102013091030130932A
:100B3000DB012093DA0120910001309101012115A0
:100B4000310541F42DB73EB74091040150910501A4
:100B5000241B350BE091DA01F091DB01E217F3077A
:100B6000A0F42E1B3F0B2817390778F0AC014E5F1D
:100B70005F4F2417350748F04E0F5F1F5093DB017E
:100B80004093DA018193919302C0E0E0F0E0CF015D
:100B9000DF91CF9108950F931F93CF93DF93009729
:100BA00009F48CC0FC013297138212820091DC019F
:100BB0001091DD010115110581F420813181820F31
:100BC000931F2091DA013091DB012817390779F55D
:100BD000F093DB01E093DA0171C0D80140E050E00E
:100BE000AE17BF0750F412962D913C911397AD01AB
:100BF0002115310509F1D901F3CF9D01DA013383C4
:100C0000228360817181860F971F8217930769F491
:100C1000EC0128813981260F371F2E5F3F4F31832A
:100C200020838A819B8193838283452B29F4F093CF
:100C3000DD01E093DC0142C01396FC93EE93129722
:100C4000ED01499159919E01240F351FE217F307D9
:100C500071F480819181840F951F029611969C9367
:100C60008E938281938113969C938E931297E0E0EA
:100C7000F0E0D80112968D919C911397009719F08E
:100C8000F8018C01F6CF8D919C9198012E5F3F4F1A
:100C9000820F931F2091DA013091DB012817390769
:100CA00069F4309729F41092DD011092DC0102C042
:100CB000138212821093DB010093DA01DF91CF914E
:100CC0001F910F910895A1E21A2EAA1BBB1BFD01D3
:100CD0000DC0AA1FBB1FEE1FFF1FA217B307E4071B
:100CE000F50720F0A21BB30BE40BF50B661F771F73
:100CF000881F991F1A9469F7609570958095909553
:100D00009B01AC01BD01CF010895EE0FFF1F0590BF
:100D1000F491E02D099481E090E0F8940C94900611
:100D200010E0CDE5D0E004C0FE010E9485062196CA
:0A0D3000CE35D107C9F7F894FFCFC4
:100D3A000000DE018000000000003E01A700D6008E
:0C0D4A0085010701E500F9000D0A00001A
:00000001FF
